:020000040800F2
:1000000060A00020790200083F7B0008B569000865
:10001000357B000801140008D1B60008000000007C
:100020000000000000000000000000009D0100082A
:100030009718000800000000F1010008A1960008D0
:10004000930200089302000893020008930200083C
:10005000930200089302000893020008930200082C
:10006000930200089302000893020008930200081C
:100070009302000893020008930200086118000828
:1000800093020008930200089302000893020008FC
:100090009302000893020008930200080D3600083E
:1000A00093020008930200089302000893020008DC
:1000B00093020008930200089302000893020008CC
:1000C00093020008930200089302000893020008BC
:1000D000930200081DB6000893020008930200086E
:1000E000D7350008018C000893020008930200082D
:1000F000930200089302000893020008930200088C
:10010000930200089302000893020008930200087B
:10011000930200089302000893020008930200086B
:10012000930200089302000893020008930200085B
:10013000930200089302000893020008930200084B
:10014000930200089302000893020008930200083B
:10015000930200089302000893020008930200082B
:10016000930200089302000893020008930200081B
:1001700093020008930200089302000800000000A8
:100180009302000893020008DFF80CD000F0AEFAEA
:10019000004800475BC0000860A000202B4B196896
:1001A000086800F058B880F30988BFF36F8F4FF0EC
:1001B000000080F3118870470000000006480068C6
:1001C000006880F3088862B661B6BFF34F8FBFF353
:1001D0006F8F00DF00BF00BF08ED00E0DFF80C000C
:1001E000016841F470010160704700BF88ED00E0D4
:1001F000EFF30980BFF36F8F144B1A681EF0100FD6
:1002000008BF20ED108A20E9F04F106008B44FF0CD
:10021000500080F31188BFF34F8FBFF36F8F0DF045
:100220000BFA4FF0000080F3118808BC19680868C9
:1002300000F016B81EF0100F08BF00F016B880F3DB
:100240000988BFF36F8F704700BF00BF34000020E4
:10025000EFF30580704730C8B0E8C04FFFF7A3BF89
:1002600030C8B0E8C04FFFF7E5BFB0EC088AB0EC8B
:1002700008CAFFF7E4BF0000064880470648004769
:10028000FEE7FEE7FEE7FEE7FEE7FEE7FEE7FEE746
:10029000FEE7FEE75D970008890100082DE9F05FA1
:1002A0000546002092469B468846064681464024E5
:1002B0001BE0284641464746224600F064F9534673
:1002C0005A46C01A914110D311461846224600F0F2
:1002D0004BF92D1A67EB01084F46224601200021F9
:1002E00000F042F917EB00094E41201EA4F1010471
:1002F000DFDC484631462A46434600F000B830BCB1
:10030000BDE8C09F38B5D0E90221491E01EB41018B
:1003100002EBC1014268C1EB011102EB81010268ED
:10032000C1EB011102EB8102D0E9043101EB410183
:1003300003EB81013023A1F5527191FBF3F4174DCA
:100340006C4302EBC41291FBF3F403FB1411009213
:100350001A2902DB124B1A4400920C2291FBF2F391
:10036000104C6343009C04EBC313009391FBF2F326
:1003700002FB13110C4A08E0491E40F2A324535C0F
:100380006343009C04EBC31300930029F4DC014693
:10039000684600F013F9009838BD00003F0C0F00CC
:1003A0008051010067C20300F00A010840EA01031E
:1003B0009B0703D009E008C9121F08C0042AFAD21B
:1003C00003E011F8013B00F8013B521EF9D27047DF
:1003D000D2B201E000F8012B491EFBD27047002287
:1003E000F6E710B513460A4604461946FFF7F0FF34
:1003F000204610BD30B505462A460B4612F8010BC3
:1004000013F8014B08B1A042F8D01CB1002802D06B
:100410006D1CF1E7284630BD10B5044604E00B78AA
:1004200000F8013B03B1491C521EF8D2204610BD12
:10043000CAB2401E10F8011F8A4202D00029F9D129
:1004400000207047421C10F8011B0029FBD1801AC4
:10045000704710B5002200E0521C835C8C5CA34204
:1004600001D1002BF8D1D8B2E1B2401A10BD034639
:1004700011F8012B00F8012B002AF9D1184670471A
:100480002DE9F04791460F4680460446002614F8B1
:10049000015B2DB100F088F80068405DC007F6D11F
:1004A0002B2D02D02D2D18D0641E4A4639462046E9
:1004B00000F0CAF827B13968A14201D1C7F800801D
:1004C00071054FF002040BD54042002803DD0BF00C
:1004D000BFF90460A007BDE8F08746F48066E4E752
:1004E0000028F8DA0BF0B4F904606FF00040F2E78E
:1004F0002DE9F05F93460F468046044600260BF038
:10050000A7F9D0F80090824614F8015B2DB100F0F5
:100510004BF80068405DC007F6D12B2D02D02D2D81
:100520001AD0641E0021CAF800105A4639462046E7
:1005300000F08AF8014627B13868A04201D1C7F817
:100540000080DAF80000022809D0CAF8009070058F
:1005500005D5484200F005B846F48066E2E7084653
:10056000F8E730BCBDE8C09F202A04DB203A00FA3F
:1005700002F1002070479140C2F1200320FA03F3FA
:10058000194390407047202A04DB203A21FA02F0F8
:100590000021704721FA02F3D040C2F120029140BD
:1005A000084319467047000000487047800B010857
:1005B000014900F003B80000349C002010B5006829
:1005C0003C22B0FBF2F302FB1303B0FBF2F00B6032
:1005D000B0FBF2F302FB1303B0FBF2F018224B6006
:1005E000B0FBF2F302FB1303B0FBF2F0021D8B60D1
:1005F0000723B2FBF3F403FB1422800040F2B5534F
:1006000000F66C308A61B0FBF3F2B0FBF3F403FB4D
:100610001400443280084A61C8613B2802D3920723
:1006200000D0401C0022074C13460A61E25C824263
:1006300003D8801A5B1C0B61F8E7401CC8600846B1
:1006400010BD0000840B01082DE9F05F82460078A0
:10065000002715468B460AF10104B946302801D01F
:100660009DB113E014F8010B0127782803D0582816
:1006700001D045B10AE00DB1102D07D1002710259A
:1006800014F8010B02E0082500E00A250026B04618
:100690000EE005FB080005FB06F1012701EB104603
:1006A0001FFA80F8B6F5803F00D3B94614F8010B65
:1006B000294600F02DF80028EBDABBF1000F05D039
:1006C0000FB1641E00E05446CBF80040B9F1000FB2
:1006D00006D00BF0BDF802210160C81E00F003B87F
:1006E00048EA0640FAE730BCBDE8C09F064C074D1B
:1006F00006E0E06840F0010394E8070098471034F2
:10070000AC42F6D3FFF744FDBC0F0108DC0F010833
:100710003A2800D2303820F02002412A01D3A2F139
:100720003700884201D34FF0FF30704770B58C1806
:1007300010F8015B15F0070301D110F8013B2A11F5
:1007400006D110F8012B03E010F8016B01F8016BE2
:100750005B1EF9D12B0705D40023521E0DD401F8DE
:10076000013BFAE710F8013BCB1A921C03E013F8A7
:10077000015B01F8015B521EF9D5A142D8D30020DC
:1007800070BD00001CB5040012D0FFF75BFE401CDA
:100790000104090CADF804106846009408D000F07C
:1007A000CDFD002804D00348022140680BF04CFF27
:1007B0001CBD00008C00002010F0FF0F09D111F0CB
:1007C000FF0F06D1010E03484170042140680BF071
:1007D0003BBF70478C00002010B5094CA068002872
:1007E0000CD00CF009F8A0680BF0C0FF0020A0604E
:1007F00000F048FCBDE8104000F07CBD10BD0000DA
:100800008C0000200248012140680BF01DBF000051
:100810008C0000200EB50BF091FF1F4D00221146F9
:1008200068601E480068009068460BF08FFFA86063
:1008300002F036FF0121084601F0C6FA40F6B83151
:10084000A8680BF0A9FF164803F042FA00F060FD1B
:100850004FF0FF3677083246394668460BF022FFE4
:10086000DDE900040828F6D1E00701D0FFF7B4FF66
:10087000A00704D5FFF7B0FFE86800F05DFD600752
:10088000E9D568781D2805D01E28E4D1012000F0A4
:1008900041FDE0E70020FAE78C00002000EE0008B0
:1008A000B907000810B50748012140680BF0CCFEDD
:1008B0000146B0F1004F04D1BDE8104002A00AF09B
:1008C0008BBF10BD440100205B455D2D2D5B54495D
:1008D0004D45525F434150313231345D2D72657464
:1008E000282564292E0D0A00F0B504468BB0007847
:1008F00000F03AF92078504D0B2834D2DFE800F0B0
:1009000006082C343D203F8F879989004BA084E056
:1009100060680068FFF796FD103087B238460CF02B
:100920001DFB06007BD0606847A34AA290F908101F
:100930000068CDE90001394630460AF05DFF5FE00E
:1009400060680078022803D0012803D043A064E047
:1009500047A062E04BA060E06068FFF713FF03F080
:1009600021FA01F009FF5AE02878022803D0032871
:1009700001D049A051E04AA04FE04DA04DE0606891
:1009800040F2E2710088884225D3A0F5FA608DF824
:100990002B00606880788DF829006068C0788DF839
:1009A0002A00606801798DF8281040798DF81400CC
:1009B000606805A980798DF815006068C0798DF8A8
:1009C000160000200790069008908DF817000990F7
:1009D0000AA808F05BF920200CF0C0FA06001ED02F
:1009E000606801AF0188C4798379427987E81E0085
:1009F000C1780091837835A2202130460AF0FCFEB0
:100A00003046FFF7BFFE30460CF030FC07E035A063
:100A100003E0687802280AD034A0FFF7B3FE01F0A3
:100A200097FB287001F07CFB68700BB0F0BD31A023
:100A3000F3E734A0F1E7000044010020574946499C
:100A4000206F666600000000636F6E6E6563743A27
:100A500000000000257325732C2564005749464982
:100A6000207369676E616C207765616B0000000020
:100A700057494649207369676E616C20676F6F64E0
:100A80000000000057494649207369676E616C2079
:100A90006D656469756D000057494649206F6E00A9
:100AA0005749464920646973636F6E6E65637400CD
:100AB0005749464920536D61727420636F6E6669B1
:100AC0006720697320676F696E67000025642F25B2
:100AD000642F256420253032643A253032643A256B
:100AE000303264004254206F666600004254206F2A
:100AF0006E000000425420646973636F6E6E65631C
:100B000074000000425420636F6E6E6563740000D1
:100B10000EB50BF013FE114C00220121606010484D
:100B20000068009068460BF011FE3221E0600BF087
:100B300033FE0C4801F0B6F94FF0FF346508224649
:100B4000294668460BF0AEFDDDE900030828F6D122
:100B5000D807F4D000F0AFFFF1E700004401002017
:100B600090F70008E9080008044908704868002860
:100B700002D004210BF068BD70470000A0010020E6
:100B800003484068002802D008210BF05DBD704783
:100B9000A001002070B51448C0680BF02DFE134C66
:100BA00060782070E078A070012007F01FFD2078A9
:100BB0000F4E00EB400506EBC500C178C9060B0ED1
:100BC000817801EB410149060A0E417816F835009B
:100BD00006F0C9FFA178207807F042FBBDE870401D
:100BE00000210C2007F03CBBA0010020089C002045
:100BF000FC070108184810B5816800292AD100783F
:100C0000164C0B2826D2DFE800F00606060606255D
:100C10002525191919000021032007F021FB207850
:100C2000062817D1012007F0E1FC50237E22102175
:100C3000002006F098FFA178207807E0002103202B
:100C400007F00EFB2078072804D1A178BDE81040FA
:100C500007F006BB10BD0000A0010020089C00208A
:100C6000054A82B050609160CDE90001034802213D
:100C7000406802B00BF0E8BC089C0020A0010020F6
:100C80001B4830B48068002830D11A4B18790028EE
:100C90002CD1187A002829D11978174C01EB410181
:100CA00004EBC101DA798C689978082301EB4101E2
:100CB00003EBC1016158A1B19AB1212A11D20B787D
:100CC0000BB90E48805CDB0701D00D4906E049688E
:100CD00004E0934201D1487803E0891C0B78002B93
:100CE000F7D1002802D030BC00F00CB830BC7047FF
:100CF000A0010020089C0020FC07010886020108D2
:100D0000A70201082DE9F041614C604D0C262178C5
:100D100094F802C001EB410205EBC2030CEB4C0757
:100D20000C287DD2DFE800F0AFAF19190606AFAF8F
:100D300057575F5F84F803C007F0C0FBA070E178ED
:100D400081426DD02078002207F07DFAA1782078CA
:100D5000BDE8F041012207F076BA022807D0187DDD
:100D6000800711D5BDE8F0410020FFF713BF142222
:100D7000986802EBC702835C002B51D06170805CE5
:100D8000207007F081FB06E0187900287BD06170A5
:100D9000207007F0C5FBA070012007F027FC207829
:100DA00000EB400605EBC600C178C9060B0E817842
:100DB00001EB410149060A0E417815F8360006F0AC
:100DC000D2FEA178207807F04BFABDE8F04100216F
:100DD0000C2007F045BA996806EBC702895C002928
:100DE00051D002461AE00A2826D009270B2925D31C
:100DF000187D800703D540F6B83000F071F82078F0
:100E000000EB400005EBC0008168A07800EB4000DB
:100E100006EBC000095C002935D03A46012000E00D
:100E200031E007F069FC00282DD0A1782078BDE8DA
:100E3000F041012207F034B80827D7E7617084F841
:100E400003C00B2020700020A070012007F0CEFB13
:100E5000207800EB400005EBC00115F83000CA789F
:100E6000D206130E8A78497802EB42025206120E1D
:100E700006F079FEA178207807F0F2F900210C2025
:100E800007F0EEF9BBE7BDE8F0810000FC070108C0
:100E9000089C002010B50748012140680BF0D4FBE6
:100EA0000146B0F1004F04D1BDE8104002A00AF0A5
:100EB00093BC10BDA00100205B4F53442041505013
:100EC0005D2D2D5B455D2D2D5B54494D45525F4C8D
:100ED0004F474F5D2D726574282564292E0D0A0039
:100EE00001460248C0680BF057BC0000A00100207A
:100EF0000EB50BF023FC1F4E706000F03FF84FF072
:100F0000FF376FF000483A46414668460BF0CAFB8F
:100F1000DDE900040828F6D1E0071CD0012007F025
:100F200065FB06F01DFE0021032007F099F9124D24
:100F30000420287007F0A8FAA8702A780146104605
:100F400007F08EF900210C2007F08AF9B0680BF049
:100F50000DFC0020B060A00701D5FFF791FE6007EF
:100F600001D5FFF747FE2007CDD50021032007F06C
:100F700077F9C8E7A0010020089C00207CB506F0A6
:100F800089FF144D002211462868009068460BF036
:100F9000DDFB114CA06002F091FB0121002000F06C
:100FA00013FF002007F07EFB0C488178002000F042
:100FB00023FF40F6B831A0680BF0EEFB6868002212
:100FC0000190114601A80BF0C1FBE060044802F05B
:100FD0007FFE7CBD440A0108A00100209C01002086
:100FE000610C00080BF0AAFB0549886001200BF09A
:100FF000C0F90CF05FF80028F8D000F039FFF5E7F1
:1010000044010020102825D2DFE800F0241C080A43
:101010000C0E10121416181E1A2422201F207047BE
:1010200020207047212070472220704723207047DE
:1010300024207047252070472620704727207047BE
:10104000292070471E2070472820704718207047BD
:1010500017207047002070470949087920B10128FE
:101060000CD1002008F052B9087A401E10F0FF00A1
:10107000087201D00120F5E70220F3E77047000075
:1010800054010020012000F028BE08B5009313464B
:101090000A460146012000F02AFE08BD2DE9FE4F58
:1010A000041E4FF008074FF0070665D0DFF8CCA00C
:1010B000CAF8044052E0A06800284CD0A089E0B3F0
:1010C000A2882FA168460AF0AFFB6846FFF7BAF97D
:1010D000A189401E084480B21521B0FBF1F201FB4A
:1010E0001208B0FBF1F2B0FBF1F301FB130000B109
:1010F00001201044C5B2B54232D8781BC7B24FEABE
:10110000C70909F0FF016A46002000F0BAF86846F6
:10111000FFF798F900EB40004006000E09F0FF01D0
:10112000A26800F0AEF8701BC6B2B8F1000F12D082
:101130007819C0000838C1B200E00CE0A8EB8800C4
:101140007E2202EB4000C2B208EB48004006000ECF
:101150000823FFF79AFFCAF800402468002CAAD1A0
:10116000002E09D07042402101EBC000C3B284229E
:1011700008210020FFF789FF00F006B89401002045
:101180005B25645D000000001EBCBDE8E08F000030
:101190002DE9FE4F041E4FF001054FF0070664D005
:1011A000DFF8CCA0CAF8004050E0A068E8B3A089FE
:1011B000D8B3A2882FA168460AF036FB6846FFF72D
:1011C00041F9A189401E084480B21521B0FBF1F21B
:1011D00001FB1208B0FBF1F2B0FBF1F301FB1300CD
:1011E00000B101201044C7B2B74231D84FEAC50957
:1011F00009F0FF016A46002000F043F86846FFF757
:1012000021F900EB40004006000E09F0FF01A26842
:1012100000F037F8E819C5B2F01BC6B2B8F1000FFC
:1012200011D0E8000838C1B200E00CE0A8EB88005B
:101230007E2202EB4000C2B208EB48004006000EDE
:101240000823FFF722FFCAF804402469002CACD120
:10125000002E0AD06842402101EBC000C3B2E8066C
:10126000010E84220020FFF710FF00F007B80000F5
:10127000940100205B25645D000000001EBCBDE8F9
:10128000E08F08B50B46009202460021012000F0D5
:101290006EFD08BD2DE9F84380461E4691460F4677
:1012A00000251846089CFFF7CDF8C0B2AC46414671
:1012B000B8F1010F10D0022907D0B8F1030F0BD1FC
:1012C000A04209D8201AC5B206E0A04204D8201ACC
:1012D00000EBD070C0F3470505EB450007EB40007D
:1012E000C2B24B4661460120009600F040FDBDE8C9
:1012F000F883000008B515200022009002A31146D3
:101300000220FFF7C7FF08BD424C4F54544552001E
:1013100070470000074928B108680068002807D016
:10132000FFF7BCBE48680069002801D0FFF730BF56
:101330007047000094010020FFF72ABF2DE9F0411B
:10134000050059D02868002856D0A888002853D016
:101350002A4F40F2E7317888884201D2401C00E0F1
:101360000120788014200BF0F9FD040044D0AE88F1
:101370008E2E00D98E2630460BF0F0FDA060B8B35B
:101380007988A18032462968FFF710F8A8880025DF
:101390008E2802D9A06880F88E50A681256125602C
:1013A000F86818B138781E2803D017E0FC603C615B
:1013B00018E03E69306805613068386176B1B06820
:1013C00008B10BF053FF30460BF050FF3878401E49
:1013D00010F0FF00387001D1FD603D61F8680460D5
:1013E0002061FC603878401C38700120BDE8F08135
:1013F000FFE720460BF03AFF0020F7E78C000020C3
:10140000FEE7000008B50020009002226946032094
:1014100000F026F80249C870BDF8000008BD0000C1
:10142000F000002038B500208DF800000122694648
:1014300000F016F8074C0028E0700AD19DF8000073
:10144000012200F0FE018DF80010002000F038F8B5
:10145000E07038BDF0000020012200F001B800006B
:101460003EB5054600913220CDE9012001232A46F0
:101470005021064803F05EF8040005D003462A46D2
:10148000034904A00AF0A8F920463EBD64030020E9
:10149000A4F400085B434150313231345D2D2D5BA3
:1014A000455D2D2D25732C726561642028307825CB
:1014B00078293A25642E0A00012200F001B80000C4
:1014C00037B584B005A9054600913220CDE9012049
:1014D00001232A465021074803F0E8F8040005D00C
:1014E00003462A46044905A00AF076F907B02046CB
:1014F00030BD000064030020B7F400085B43415096
:10150000313231345D2D2D5B455D2D2D25732C77CA
:1015100072697465202830782578293A25642E0A66
:101520000000000070B500F017F800280FD1084D3A
:10153000002405EB4400417815F81400FFF7BCFFC8
:10154000641CA4B21D2CF4D302490120087070BDA4
:101550005CF40008F000002038B50324002000905F
:1015600003226946FD20FFF77BFFA4F1010405007B
:10157000E4B202D0002CF3D10AE04CB19DF8000097
:101580005A2809D0054906A00AF026F9012038BDDD
:1015900002490DA00AF020F9284638BDCBF4000816
:1015A0005B434150313231345D2D2D5B455D2D2D36
:1015B00025732C2072656164204944206661696C42
:1015C0007572652E200D0A005B4341503132313473
:1015D0005D2D2D5B455D2D2D25732C2074696D656A
:1015E0006F75742E200D0A0070B50D4604460AF082
:1015F000CCFEA04202D2E143084400E0001BA84216
:1016000001D3012070BD002070BD704738B5694618
:1016100000200AF043FC10480079B0B19DF800208A
:101620009DF801000C4C002102EB0020123482B224
:10163000002004EB012323F81020401C80B28028F6
:10164000F9D3491CC9B21029F2D3802300211A46CC
:10165000084609F0F3FC38BDDE8600207047000024
:101660002DE9F84F814637481E46174600790D464A
:10167000002865D04846B9F1800F61D2802D5FD235
:1016800009F0DCFC694600200AF008FCEC0870193F
:10169000410700D0012101EBD000102800D3102019
:1016A000834609EB0700802800D3802000F0FF0A62
:1016B0004FF0010E42E0E0000830C3B2A81905F077
:1016C0000707F446984202D9581BC2B200E03246DE
:1016D0000120114602E00CEB4000C0B2491E11F09F
:1016E000FF01F8D19DF800100140B94001F0FF085A
:1016F0009DF801100140B940B840C043C5B201F0A7
:10170000FF0C484613E00F49123101EB042111F898
:1017100010702F4047EA080701F8107001EB4001F4
:101720004F782F4047EA0C07401C4F70C0B250451D
:10173000E9D3B01A641C1D46C6B2E4B25C45BAD304
:1017400000F002B8DE86002018BCBDE8E08F000083
:1017500070B5054600246FF0FF0661000023324695
:10176000074803F0A5F9641CE4B2042CF5D3002D5E
:1017700004D0BDE87040002005F022BC70BD000020
:10178000CC01002001227421014802F079BD000043
:10179000001400480348802101804180002181809D
:1017A000C180704784000020002140B10A2290FBD4
:1017B000F2F0491CC9B20028F9D10846704701214E
:1017C000FBE7000010B5094C208A401E0004000C05
:1017D000208209D1606A0BF00FF80120E070BDE8AB
:1017E0001040042007F0C2BE10BD000054010020CC
:1017F000064940B18878401CC0B28870042801D9DD
:101800000020887070470420FBE70000540100208E
:1018100010B5124CE07870B1012811D002281BD10C
:10182000FFF7B0FF0020FFF7E3FFA06A0AF0E4FF34
:101830000320E0700BE0606A0AF0DEFF0120F8E7A9
:101840000220E070208A0028E3D000202082BDE83A
:101850001040012007F08ABE10BD00005401002096
:10186000014802F0F9BA0000F802002030B590F803
:1018700044500124AC40056C6C600468636083686C
:10188000102B036803D099600068C26030BD9A6075
:101890000068C16030BD704710B50828029C02D0B6
:1018A00009280AD012E0994201DB184610BD081938
:1018B00001B299420ADD194608E0914201DC104666
:1018C00010BD081B01B2914200DA1146084610BD56
:1018D00010B50828029C02D009280AD012E09942CB
:1018E00001DB104610BD081901B299420ADD11460C
:1018F00008E0914201DC184610BD081B01B291427C
:1019000000DA1946084610BD704738B50024009427
:101910008DF800306B4600F065F838BD7047000068
:101920002DE9FF4F814683B01C460E464FF000085C
:1019300048071DD00020824627480079002848D05B
:101940004846B9F1800F44D2802E42D2059A09F060
:1019500075FB059909EB0100802800D3802000F079
:10196000FF0B3019802800D38020C0B201902EE0F8
:101970000120E0E71098184900EB0805F008123143
:101980004C4601EB002718E0BAF1000F0DD0287883
:1019900069460AF083FA9DF8000007F8140007EB87
:1019A00044019DF80100487004E02A783146204641
:1019B00009F090FE641CE4B26D1C5C45E4D305990B
:1019C000083608EB01001FFA80F80198F6B286424B
:1019D000D0D307B000F002B8DE86002030BCBDE8EE
:1019E000C08F70472DE9F8430C462E4900251F464D
:1019F00009791646002922D0802C20D2802E1ED2B2
:101A0000F8B101281BD148E02038C0B200EB4001FA
:101A100008EB41006D1C0090EDB208230622314610
:101A20002046FFF77DFFA41DE4B27A2C02D8785D32
:101A30000028E9D108360024F6B2802E03D3BDE891
:101A4000F883DFF86480785D0028EED1F7E720386E
:101A50001649C0B201EB00186D1C0823EDB21A46FE
:101A600031462046CDF80080FFF75AFF08F1080004
:101A7000009006F10800C1B208231A462046FFF77D
:101A80004FFF0834E4B2782C02D8785D0028DED10C
:101A900010360024F6B2802ED1D2785D0028F2D123
:101AA000CDE70000DE860020DCE4000804E7000843
:101AB000704701F011BE01F029BE01F08FBEA0F108
:101AC0001E020C2A09D2DFE802F006060606060608
:101AD00006060606080601F093BE7047002117208F
:101AE00000F00CB80021182000F008B800211920DF
:101AF00000F004B800211620AFF300802DE9F05F5C
:101B00006C4DDFF8B4C16B4C103D80266A4F4FF02E
:101B1000020A4FF0010B4FF480734FF0400EACF10E
:101B2000100C4FF090424FF400592A2818D2DFE8E9
:101B300000F017151B1F252A2F363D53574A4E43D9
:101B4000475E666E757B81868A9F9197A4AAAEB226
:101B5000BCBCBCBCBCBCBCBCBCBCB6BC11B1236076
:101B600000F0B2B82B60FBE74FF0100011B903E0B2
:101B7000704609B12060F3E72860F1E74FF40040B8
:101B80000029F9D0F6E709B12660E9E72E60E7E71A
:101B900000294FF010012FD048480160E0E74FF0D6
:101BA000200031BB454910390860D9E709B13B60D5
:101BB000D6E7CCF80030D3E758460029DCD0D9E787
:101BC0007046F9B920E008200029D5D0D2E74FF0BF
:101BD000100071B33860C3E74FF0200019B904E07A
:101BE0004FF0100009B19062BAE79061B8E711B107
:101BF00048463249D8E7494630481038CDE74FF4D7
:101C0000006009B12E49CFE72D491039CCE709B161
:101C10002B4801E02A4810380360A1E711B10421E4
:101C20002748BAE70420EFE74FF400400029DCD052
:101C3000D9E725E04FF480400029D6D0D3E74846C5
:101C40000029D2D0CFE709B11E4801E01D48103865
:101C5000066085E709B11B48DEE71A481038DBE764
:101C60004FF4007009B117499EE7164910399BE7F8
:101C700000294FF004018FD1BEE748460029A9D1C1
:101C8000CCF800006CE75046002997D072E7504628
:101C90000029F5D09EE758460029F1D09AE709B10E
:101CA0003E605DE7CCF800605AE700F010B8FFF73F
:101CB00006BF000028180048280C004828080048E3
:101CC000280400482814004830BCBDE8C09F30BC40
:101CD000BDE8C05FFFF7EBBF704710B501F0CEFD68
:101CE000002803D00069BDE81040004710BD2DE971
:101CF000F0411C4615460E46069F01F0BFFD002828
:101D000008D0D0F814C03B46224629463046BDE8EC
:101D1000F0416047BDE8F0812DE9F04387B01D46F2
:101D2000DDE90E679046894601F0A8FD04001BD04E
:101D3000142101A8FEF753FBE26B01A90420904790
:101D4000E26B0DF1060105209047BDF80400A842A2
:101D50000AD3BDF80600B04206D30097246A334682
:101D60002A4641464846A04707B0BDE8F0832DE922
:101D7000F0411C4615460E46069F01F07FFD0028E7
:101D800008D0D0F81CC03B46224629463046BDE864
:101D9000F0416047BDE8F081094910B5074A0A6083
:101DA000084A4A6001F06AFD040005D020688047B7
:101DB0002069BDE81040004710BD0000C0ED0008DC
:101DC0007C00002020ED000810B50C4601F056FD07
:101DD000002804D042682046BDE81040104710BDDE
:101DE00010B50C4601F04AFD002804D0C268204618
:101DF000BDE81040104710BD13B501F03FFD0028AD
:101E000003D0C26B01A90D2090471CBD10B50C4634
:101E100001F034FD002804D082682046BDE810405F
:101E2000104710BD7CB50F4900200F4C086048607A
:101E30000881C1F80A00C1F80E004882206800221B
:101E40000090114668460AF081FC084D00221146B8
:101E5000E8606068019001A80AF078FC28610BF046
:101E600063F97CBDF096002070F10008A00000200E
:101E700010B5044601F0FCFD204601F073FD20463C
:101E8000BDE8104001F026BD002808D001460448F6
:101E9000021D81601278002A01D04068084770470F
:101EA000A0000020002801D00149486070470000D0
:101EB0000401002010214FF0904002F0DDB9000035
:101EC0002DE9F0413C4EA4B0F06B10B93BA000F0FE
:101ED00075FB3C48FEF7B6FA801D82B209233AA191
:101EE00013A809F0A1FC3748FEF7ACFA87B200242A
:101EF00013ADDFF8D0800AE0FEF7A4FA80B218F83C
:101F00000420284431A109F08FFC641CA4B2BC4217
:101F100013A8F1D3FEF796FA84B2F06B78B1FEF70E
:101F200091FA80B2F16B021F461E831E8A5C8E5DA1
:101F3000CB5C8DE84C00401F0B5C281905E00020AD
:101F4000009001900290281900235F2221A109F03E
:101F50006BFC26A103A8FEF78AFA03A8FEF772FA23
:101F6000C0F13E0084B203A8FEF76CFA03A908444E
:101F700013AB22A2214609F03FFC03A8FEF762FA48
:101F8000402806D903A8FEF75DFA01461CA009F017
:101F900023FC23A000F06CF825A000F069F803A949
:101FA00028A000F0C3FF074929A00A3100F0BEFFB6
:101FB00024B0BDE8F0810000C8970020424C4541A4
:101FC000444452000CF50008253032582530325870
:101FD0000000000025303258253032582530325864
:101FE000253032582530325800000000223032307F
:101FF00031303630333033303241300025732200F7
:102000004572726F7220424C4520414456206461F3
:10201000746120746F6F206C6F6E673A25640A00DC
:10202000424C454741545453535256435245000085
:10203000424C4547415454535352565354415254C1
:1020400000000000424C45414456444154410000C8
:10205000424C454E414D450001A102A000F066BF33
:102060003100000043574155544F434F4E4E00003E
:102070002DE9F843194C8046607818B1032738469B
:10208000BDE8F883012060704046FEF7DBF90830B8
:1020900087B238460AF062FF05004FF0000614D000
:1020A0004046FEF7CFF998B10DA0009043460DA22F
:1020B0003946284609F0A0FB284601F00DFA0746EC
:1020C00028460BF0D3F86670D9E766700120D7E791
:1020D00006A23946284609F08FFBEDE7C897002095
:1020E0000D0A000041542B257325730041540D0A3D
:1020F0000000000000487047E49700200148007885
:1021000070470000040100200148C06870470000CB
:10211000C89700200148C06B70470000C897002096
:10212000014890F839007047C897002001480069BD
:1021300070470000C89700200148C06A704700003F
:10214000C89700200148806A70470000C8970020A7
:102150000148007A70470000C897002000B58BB096
:1021600014220A496846FEF721F9002168460AF060
:10217000CEFA06491422143105A8FEF717F90021FA
:1021800005A80AF0C4FA0BB000BD000094F60008E0
:10219000F8B520200AF0E2FE424D04001AD02021BA
:1021A000FEF71DF92346202201213F4806F0B4FD29
:1021B00000B16C6140200AF0D1FE04000AD0402139
:1021C000FEF70DF9234640220221374806F0A4FD10
:1021D00000B1AC6100266B460222012133A006F05B
:1021E0009BFD022809D19DF800005A2805D19DF8D1
:1021F000010008B1012600E000260A2403E0D0B95E
:1022000064200AF0B6F8641E2878A4B2F7D290B918
:1022100029A0FFF72DFF20B1BDE8F84027A009F065
:10222000DBBA142404E0287828B964200AF0A1F865
:10223000641EA4B2F7D228A12BA000F077FE10B143
:102240002CA009F0C9FA0120287032A000F0B6F9DC
:1022500032A0FFF70DFF32A000F0B0F933A000F07C
:10226000ADF9022085F8380033A134A000F05EFEFD
:1022700034A000F0A3F926B10020FFF721FE30B111
:102280000BE032A12DA000F051FE002003E0002061
:1022900000F036FF012000F041FEBDE8F84027A025
:1022A00000F08CB9C8970020F43000086D697363A2
:1022B0005F70617261000000525354004572726F8A
:1022C000723A4553503332207265736574206661EB
:1022D000696C65640A0000003131353230302C38C9
:1022E0002C312C302C330000554152545F43555251
:1022F000000000004661696C656420746F2073659E
:10230000742045535033322055415254206D6F6430
:10231000650A000043574D4F44450000474D5200A9
:102320004349505354414D414300000043574155E8
:10233000544F434F4E4E000032000000424C45497E
:102340004E495400424C4541444452003000000084
:102350002DE9FC474FF480680025DFF8CC90334E20
:102360000127334C4FF0904A404537D04FF4005886
:10237000404531D132212069FFF736F948B3414653
:10238000484601F074FFD8B1A06A10B309F0FDFF10
:10239000216940F6B832411A2648914204D30421FB
:1023A0000022CDE9000104E0317A39B10195002223
:1023B00000906946A06A00F0E7FF0AE00197F6E79F
:1023C000206A30B10AF018FA00222021504601F0AC
:1023D00057FF09F0DAFF206100F030B83221E068E1
:1023E000FFF702F9D8B14146484601F040FF68B115
:1023F00096F8390040B101950F48009000226946D7
:10240000A06A00F0C1FF0AE00197F5E7606A30B109
:102410000AF0F2F900221021504601F031FF09F0D4
:10242000B4FFE060D8E7000000140048C89700201F
:1024300004010020B12F00087D2E00080CBCBDE86F
:10244000F087000002494968002900D0084770471A
:10245000040100201CB50022010014488DF8012061
:102460000192406A4FF090440CD0012913D0022908
:102470001BD10AF0C1F900221021204601F000FF13
:1024800009200DE00AF0B8F901221021204601F0E0
:10249000F7FE082004E04FF47A710AF07DF90A2073
:1024A0008DF800006846FFF7CDFF1CBD0401002039
:1024B0002DE9FC4100252A4C01468DF8015001957B
:1024C000206A4FF090474FF47A76052913D2DFE85F
:1024D00001F0031423343C000AF08EF9012220217C
:1024E000384601F0CDFE8DF800506846FFF7AAFF90
:1024F000E0690AF081F9BDE8FC8131460AF04CF947
:1025000003208DF800006846FFF79CFF6580314688
:10251000E0690AF041F9EEE70AF06EF900222021A5
:10252000384601F0ADFE65803146E0690AF034F9C5
:1025300001208DF800000B4805E002208DF8000016
:1025400008481C38C06A019005E0C8210AF024F947
:1025500004208DF800006846FFF774FFCBE7000009
:1025600004010020E49700201CB51048104B002403
:10257000017A5888401C82B2986A01290FD002293A
:1025800001D003290AD15A800A2A07D309495C805D
:10259000CDE900140022694600F0F6FE1CBD5A8009
:1025A0000A2AFBD35C800449F2E70000C8970020A8
:1025B0000401002029260008E93200082DE9F8432B
:1025C000144D8046687818B103273846BDE8F88373
:1025D000012068704046FDF735FF083087B2384665
:1025E0000AF0BCFC04004FF0000610D00AA00090D6
:1025F00043460AA23946204609F0FEF8204600F07C
:102600006BFF074620460AF031FE6E70DDE76E7004
:102610000120DBE7C89700200D0A000041542B255C
:10262000733F2573000000001CB508B109F0A1FE3E
:102630001B4C7F2084F824001AA0FFF7BFFF00285E
:1026400028D194F824007F2825D0207A022804D0AD
:10265000032802D0022000F027FD94F9240010F195
:10266000460F01DD022005E010F1500F01DA0020D5
:1026700000E001200D490A7890420BD0087000203C
:102680008DF801000846019005208DF8000068468D
:10269000FFF7D8FE1CBDBDE81C40012000F004BDC2
:1026A000C897002043574A41500000000401002011
:1026B00010B505A0FFF7DCFC002804D1BDE81040F0
:1026C000032000F0F1BC10BD434946535200000006
:1026D0001CB5044690F9003010A20621684609F0A6
:1026E0008BF869460FA000F021FC88B94FF47A708E
:1026F00009F03FFE0EA0FFF761FF94F900300FA232
:102700000621684609F078F8694606A000F00EFC3C
:102710006268002A01D00B4990471CBD312C25640A
:1027200000000000434950534E54504346470000B8
:10273000434950534E545054494D4500302C256464
:1027400000000000F897002070B50A4EB468002C15
:102750000FD06569606808B10AF088FDE06808B1CB
:102760000AF084FD20460AF081FD2C00F1D1002002
:10277000B06070BD04010020002100F001B800002D
:102780001CB50B4A0024127A032A02D005242046E5
:102790001CBD084A4042107007485160CDE9000254
:1027A0000448002230386946806A00F0EDFDEEE70B
:1027B000C897002034010020D1260008F8B505464E
:1027C00018200AF0CBFB040073D01421FDF707FE9C
:1027D00028212846FDF72CFE00285FD0401C054626
:1027E0002C21FDF725FE070058D000263E7032460A
:1027F0006946284609F084FA08B100982070BF1C89
:1028000022213846FDF714FE050047D0E81B401C86
:1028100082B22E703946201D00F014FBB8B3AD1CF7
:102820002F462C212846FDF703FE050036D02E70DA
:1028300000226946384609F063FA08B10098207210
:10284000AD1C2F4622212846FDF7F2FD050025D0BC
:10285000E81B401C82B22E70394604F10C0000F0D7
:10286000F1FAA0B1AD1C29212846FDF7E1FD70B1B8
:10287000067000226946284609F042FA08B100981D
:1028800020740D496661886818B98C6011E005E014
:10289000084641690029FBD144610AE0606808B13B
:1028A0000AF0E4FCE06808B10AF0E0FC20460AF017
:1028B000DDFC0120F8BD00000401002010B53A2124
:1028C000FDF7B6FD48B1401C0446FDF7BBFD401CBA
:1028D00082B22146024800F0B5FA012010BD000086
:1028E000D497002010B5022000F018FB012010BD85
:1028F0001CB5012000F012FB0548009000200246A4
:10290000019004486946806A00F03EFD01201CBD2C
:10291000013100080401002010B53A21FDF788FDBF
:1029200048B1401C0446FDF78DFD401C82B2214693
:10293000024800F087FA012010BD00000498002032
:1029400038B53A21FDF774FD50B1441C20460022F1
:10295000694609F0E2F928B10549009881F8380084
:10296000012038BD214603A008F036FFF8E700003B
:10297000C897002057726F6E6720424C45494E49F8
:10298000543A25730A000000044910B503208870EA
:102990000348C06A09F0FCFD012010BDC897002063
:1029A0000401002001207047044910B501208870FF
:1029B0000348C06A09F0ECFD012010BDC897002053
:1029C00004010020044910B5002088700348C06A43
:1029D00009F0DEFD012010BDC89700200401002091
:1029E00038B52221FDF724FD28B3401C05462221DD
:1029F000FDF71EFD04001ED0601B401C82B229465C
:102A00000E4800F01FFA0D48E11C1222001D00F0D4
:102A100019FA651C2C212846FDF70AFD0400F8D19F
:102A200000226946284609F06BF920B10349009855
:102A30001C3981F82400012038BD0000E4970020F3
:102A400008B53A21FDF7F4FC40B110226946401C5C
:102A500009F063F910B1024900984860012008BDEF
:102A6000C89700201CB5064800900020024601903F
:102A700004486946806A00F087FC01201CBD000004
:102A8000B12600080401002010B52221FDF7D0FC7A
:102A900040B1401C0446FDF7D5FC82B221460248F5
:102AA00000F0D0F9012010BDF497002010B52221CC
:102AB000FDF7BEFC40B1401C0446FDF7C3FC82B2EA
:102AC0002146024800F0BEF9012010BDF097002019
:102AD0002DE9F0472E4803F001FD2E4800684068BC
:102AE0004FF48061C0F580601FFA80F9894502D3F8
:102AF00029A008F071FE3348804633A1FDF77AFC27
:102B0000050025D0002028704046FDF79BFCD8B179
:102B100098F800002B2803D02C4E0E27002411E03B
:102B20002A4E583E0B27F9E756F834104046FDF779
:102B300061FC28B106EBC40041684046884718B9DB
:102B4000641CA4B2BC42EFD3A81C8046002DD4D193
:102B50004046FDF777FC04041A4D240C07D040468C
:102B6000A84504D0014622462846FDF755FCA1455C
:102B700004D0A9EB04012819FDF731FCC4F58060ED
:102B80002919BDE8F04782B2014803F02BBE0000CE
:102B900008020020F80200205761726E696E673AE1
:102BA0004553503332205541525420444D41205218
:102BB00078204275666665722046756C6C3A2564AD
:102BC0000A000000089800200D0A000014F6000812
:102BD0000149012008707047C897002010B53A21BC
:102BE000FDF726FC48B1401C0446FDF72BFC401CB9
:102BF00082B22146024800F025F9012010BD0000F4
:102C0000D897002010B53A21FDF712FC48B1401CBE
:102C10000446FDF717FC401C82B22146024800F032
:102C200011F9012010BD0000E097002010B53A21F5
:102C3000FDF7FEFB48B1401C0446FDF703FC401CB9
:102C400082B22146024800F0FDF8012010BD0000CC
:102C5000DC9700201CB50648009000200246019039
:102C600004486946806A00F08FFB01201CBD00000B
:102C7000B5300008040100207FB50546FDF7E2FBF2
:102C800080B22918002411F8010C0A2801D101F89A
:102C9000014C3A212846FDF7CBFB98B102A9401C14
:102CA00000F06AFA70B10948DDE90212C0E90C12BD
:102CB000303001908DF8014006208DF80000684604
:102CC000FFF7C0FB04B0012070BD0000C8970020D2
:102CD0000EB509F033FD0D494FF0FF356E084FF486
:102CE000806748612A463146684609F0DBFCDDE929
:102CF00000040828F6D1E00701D0FFF7E9FEA0079D
:102D0000F0D5394602A008F067FDEBE7040100208A
:102D10005761726E696E673A2045535033322055C1
:102D200041525420444D41205278204275666665D8
:102D3000722046756C6C3A25640A000038B53A2159
:102D4000FDF776FBA0B1441C20460022694608F03E
:102D5000E4FF10B1009828B10AE0214605A008F070
:102D60003BFD05E00A4864220849806A09F06EFBD1
:102D7000012038BD57726F6E672043574155544F3D
:102D8000434F4E4E3A25730A0000000059200008B8
:102D9000040100201CB5064800904FF4FA60019031
:102DA000044864226946806A00F0EEFA01201CBDE6
:102DB000292600080401002070B50B4C0025E06AAC
:102DC00010B10AF053FAE562E06910B10AF04EFA68
:102DD000E561206A10B10AF049FA2562012000F08D
:102DE00063F9012070BD0000C897002038B53A2172
:102DF000FDF71EFBB8B1441C20460022694608F0CE
:102E00008CFF40B10098094910F0FF00487208D0CB
:102E1000087A28B107E0214605A008F0DDFC02E0B1
:102E2000012000F041F9012038BD0000C8970020C2
:102E300057726F6E672043574D4F44453A25730ACA
:102E40000000000070B50E460546802A01D380249C
:102E500000E01446286808B10AF008FA20460AF093
:102E60007DF82860002808D0621E3146FDF7D4FAAC
:102E70002968641E00200855012070BD10B51B4C48
:102E8000C0B294F8391081422ED0C8B101282BD19C
:102E900017A118A000F04AF8002825D1022084F8D4
:102EA00038000020FFF70CF800281DD100F028F9A9
:102EB000012000F033F80120BDE8104006F042BACE
:102EC000012902D10DA0FFF7D3F80FA0FFF7D0F82A
:102ED00011A108A000F02AF8002805D184F83800D4
:102EE00000F01CF80020E7E710BD0000C8970020A4
:102EF00032000000424C45494E495400424C454185
:102F0000445653544F500000424C4547415454538B
:102F100053525653544F500030000000024981F87C
:102F20003900FFF797BA0000C89700202DE9FC4749
:102F3000184D81460E46687818B10326304600F0D9
:102F400033B8012068704846FDF77CFA04463046E5
:102F5000FDF778FA2044083080B2804609F0FEFF81
:102F600004004FF0000711D00BA0CDE900604B46E4
:102F70000AA24146204608F03FFC204600F0ACFA89
:102F8000064620460AF072F96F70D7E76F7001208D
:102F9000D5E70000C89700200D0A000041542B25FA
:102FA000733D2573257300000CBCBDE8F08700005D
:102FB00070B5294C10F0FF0007D0012501281BD067
:102FC000042847D1607A00B32CE0207A042804D08A
:102FD000032806D0022804D006E0002000F0A2F862
:102FE00002E01EA0FFF744F81EA11FA0FFF79EFFFE
:102FF00000282FD1607229E01DA11BA0FFF796FFCA
:10300000002827D16572012020E019A116A0FFF742
:103010008DFF38B96572012000F046F84FF47A70E0
:1030200009F0A7F9607A012814D1207A042802D186
:10303000002000F077F80FA10FA0FFF777FF20B175
:10304000BDE8704010A008F0C7BB0420BDE8704088
:1030500000F02AB870BD0000C897002043575141C6
:10306000500000003000000043574D4F4445000021
:103070003100000031000000435753544152545373
:103080004D415254000000004661696C6564207433
:103090006F20737461727420536D617274436F6E2C
:1030A0006669670A0000000001490872FFF700BA6C
:1030B000C897002070B5002000F034F80C4D686906
:1030C0000446FDF7BFF9401C82B22346012109A046
:1030D00008F065FBA8690446FDF7B4F92346401CD7
:1030E000BDE8704082B2022102A008F058BB000087
:1030F000C89700207661725F706172616D00000098
:10310000044890F83800022802D103A0FEF7B0BFAF
:1031100070470000C8970020424C45414456535424
:103120004152540010B509A0FEF7A2FF20B1BDE83E
:10313000104009A008F050BB0E48007A042804D1C2
:10314000BDE810400120FFF7AFBF10BD43575354F7
:103150004F50534D415254004661696C6564207470
:103160006F2073746F7020536D617274436F6E665D
:1031700069670A00C89700202DE9F84F0D4681467F
:103180002021FDF755F90746B9F1000F7ED04FF029
:10319000000ADFF8488187F800A007265446494610
:1031A00058F83400FDF726F920B108EBC400007987
:1031B000287103E0641CE4B2B442F0D3B44265D099
:1031C000781C202109F06CFF5FEA00095ED0202105
:1031D000FDF72EF906007FD0DFF800810C2786F876
:1031E00000A0002408F13808494658F83400FDF7DB
:1031F00001F920B108EBC4000079A87003E0641C59
:10320000E4B2BC42F0D3BC4266D0701C202109F06D
:1032100047FF070060D02021FDF70AF904005BD0CA
:10322000564684F800A00A226946384608F075FD23
:1032300060B30098E870601C202109F031FF28B3CA
:10324000302109F02DFF070046D03A21FDF7F0F8B4
:10325000040041D0267000226946384608F05DFD22
:10326000A0B100986871601C302109F019FF0700B7
:1032700032D03A21FDF7DCF804002DD026700A2266
:103280006946384608F049FD00B100E024E00098A6
:10329000A871601C302109F003FF07001CD0202119
:1032A000FDF7C6F8040017D026700A226946384692
:1032B00008F033FD80B10098E871601C202109F00E
:1032C000EFFE48B10A22694608F027FD20B10098B8
:1032D0002880012000F004B80020FBE724F5000856
:1032E00018BCBDE8E08F0000F8B51C4D68690028E7
:1032F00033D0FDF7A7F80446A869FDF7A3F82044EA
:10330000801D86B2304609F029FE040025D014A2A3
:1033100031466B6908F070FAFFF716FA214612A0E1
:10332000FFF704FEA0B91248806888B1FFF70CFAD5
:103330004FF4FA6009F01DF8A86900900DA231461B
:1033400020466B6908F058FA21460DA0FFF7EEFD04
:103350002046BDE8F84009F089BFF8BDC8970020B5
:10336000222573220000000043574C41500000000A
:1033700004010020222573222C2225732200000044
:1033800043574A415000000008B54FF00003009336
:10339000EFF30583002B4FF0000305D06A460AF0D7
:1033A000ECFB012804D105E00AF032FB01280BD028
:1033B000FF2008BD009838B104494FF080500860E4
:1033C000BFF34F8FBFF36F8F002008BD04ED00E007
:1033D0008CB009F0B3F92E4C00260121A06108A899
:1033E000089609F0C1F82B4DE062D5E90301CDE95B
:1033F000060106A8A16908F0D4FFA0622868099018
:103400000022012109A809F0A1F9206268680A9048
:10341000002201210AA809F099F96062A8680B90BE
:10342000002201210BA809F091F9E06140211A481E
:10343000FCF7D5FF18484FF4806529464030FCF76B
:10344000CEFF15492A464031144803F0CBF9134802
:103450000068016841F0100101601148CDE90306E0
:10346000002203A9A06AFFF78FFF751E2A4603A852
:10347000A16A08F09BFF03AB93E807008DE8070003
:103480001028F3D10029F1D010468847EEE700005C
:1034900004010020F8F40008C8970020080200206A
:1034A000912100080949102009680862084840690C
:1034B00000280AD0074909684968C1F580610904F4
:1034C000090C02D0012109F0BFB8704708020020A2
:1034D00004010020F80200202DE9F041244E0746A7
:1034E00001256421F06A09F07BF8020006D0214929
:1034F00021A008F071F90220BDE8F0810020707071
:103500003846FCF79FFF82B23946234803F018FA89
:1035100028B13A46174921A008F05EF913E04FF4AC
:103520007A61F06A09F05CF888B1707811493A461E
:1035300058B120A008F050F91748B0F8520010B167
:10354000154802F09FFF022403E014A0F2E71E4892
:103550008478F06A09F01CF83CB16D1EEDB204D31A
:103560004FF4FA6008F005FFBBE72046C4E700000F
:103570000401002084F6000825733A6661696C65D1
:103580006420746F206765742073656D6170686F67
:1035900072652025780A00000802002025733A662B
:1035A00061696C656420746F2073656E6420257397
:1035B0000000000025733A7273702074696D656FA6
:1035C00075743A2573000000C897002020214FF041
:1035D000904000F051BE10B54FF4806000F052FDF5
:1035E0004FF4006000F04EFD4FF4805000F04AFDB3
:1035F0004FF4005000F046FD4FF4804000F042FDD3
:10360000BDE810404FF4004000F03CBD4FF4807026
:1036100000F038BD044B4FF4007108B1012200E006
:103620000022184600F02CBE00100048C10701D04F
:1036300001207047810701D502207047410701D55D
:1036400003207047010701D504207047C10601D54A
:1036500005207047810601D506207047C10501D5B8
:1036600007207047810501D508207047410501D525
:1036700009207047010501D50A207047C10401D512
:103680000B207047810401D50C207047410401D5FF
:103690000D207047000401D50E20704700207047B0
:1036A0001CB505494020CDE90001002280231146C8
:1036B0000120FEF731FB1CBD66FA00081CB5054968
:1036C0002020CDE900010021802330220846FEF7AA
:1036D00023FB1CBD66F800087CB5FDF723FF094DF0
:1036E0000022114628680090684609F02FF8064C21
:1036F00000221146A0606868019001A809F026F830
:10370000E0607CBD54F40008F00000202DE9F04199
:1037100000242F4800F014FE202857D1FDF772FE38
:103720002C4D274606006F702ED0FDF77BFE002043
:10373000012202FA00F1314201D0641CE4B2401CC3
:10374000C0B21028F5D3012C01D0A8780BE0304688
:10375000FFF76CFF08B10F2801D3002003E01E49DA
:10376000084410F8010C687010F0FF010CD0A87824
:10377000814218D0FDF746FC0021FEF7BFF96878BA
:10378000FDF740FC01210AE0A878E8B14FF4FA7196
:103790000F280BD00E280BD0FDF734FC0021FEF7CC
:1037A000ADF9687880B1A87830B10DE0A86800E084
:1037B000E86808F0F1FFF4E7696829B16A7862F314
:1037C000070067F30F2088476878A870BDE8F0818C
:1037D00064030020F000002096F4000800280BD0BD
:1037E0000649024648604978002905D061F3070080
:1037F000002161F30F20104770470000F000002007
:10380000F8B50D4603F00AFC04461248007808B9E2
:10381000FDF788FE002C1BD00F2C19D20120082C9C
:1038200002D87326641E01E07426093CA040C4B28D
:1038300069463046FDF710FE9DF800000DB12043AB
:1038400000E0A0438DF80000C1B23046FDF734FE21
:10385000F8BD0000F000002010B50020FEF79CFA33
:103860000120FEF799FAFEF723F9FEF7DBFAFEF7DF
:1038700020F9BDE81040FEF72FBA00000100054A0C
:103880004FF0000003D0012900D150687047106844
:10389000704700007C00002070B50D4D2C1F2B7868
:1038A000A26853B1834207D1002905D100266E706A
:1038B0000AB1606890472E7070BD0129FCD1287054
:1038C00001206870002AF7D06068BDE8704010479A
:1038D000A40000202DE9F041204D01260027286892
:1038E0001F4C4FF4FA7800780A281BD0207820B1BA
:1038F00027704146E06808F04FFF00210D20FFF7D8
:10390000CBFF686900780A2819D0607820B1677009
:103910004146206908F040FFBDE8F0410021102039
:10392000FFF7BABF01211620FEF7E8F801210D20AC
:10393000FFF7B2FF2670E06808F05EFFE1E70121C3
:103940001920FEF7DBF801211020FFF7A5FF6670B4
:103950002069BDE8F04108F04FBF00000CF40008FA
:10396000A0000020F8B53F493F4D404F486A00781D
:103970000A281ED000211A20FEF7C0F800211B20C3
:10398000FEF7BCF800211C20FEF7B8F800211D202E
:10399000FEF7B4F8B9680024A5F10A0600295AD048
:1039A000A879082857D328796A7990424BD92020E2
:1039B0004AE0F878032802D2401CF870F8BD486A43
:1039C0008078A870042801D21A2002E00B2802D2C5
:1039D0001B2068700AE00F2802D24FF01C00F8E7A5
:1039E00002D14FF01D00F4E7687860B1C1B22878C9
:1039F000814208D00021FEF781F868780121FEF7A6
:103A00007DF868782870E87948B1E87803280AD802
:103A1000A8780C2807D30F20A870287110E0012087
:103A2000E871A878F9E72979A878814201D3091AC1
:103A300000E0411AAA79C9B28A4201D26871A9711B
:103A4000A878E870F8BD1F2028726C72708AADF8F3
:103A500000000098884746F80A4F74603481FC7073
:103A6000F8BD00001CF30008FA960020A00000201A
:103A7000F8B54A494A4E4B4C086800780A2828D0C5
:103A800000210F20FEF73AF800211020FEF736F84B
:103A900000211120FEF732F800211220FEF72EF847
:103AA00000211320FEF72AF800211420FEF726F843
:103AB00000211520FEF722F8B1680025002967D003
:103AC000A079082864D320796279904258D91D20C2
:103AD00057E0B078032802D2401CB070F8BD0868E7
:103AE0000F258078A070022801D2657019E00428A3
:103AF00001D2102002E0082802D21120607010E0EC
:103B00000B2801D21220F9E70E2802D24FF0130041
:103B1000F4E702D14FF01400F0E70F2819D06078D5
:103B200060B161782078814208D00021FDF7E6FF7E
:103B300060780121FDF7E2FF60782070E07950B1F4
:103B4000E07803280CD8A0780C2809D3A57025713B
:103B500013E01520D2E70120E071A07820710CE07D
:103B60002179A078814201D3091A00E0411AA27993
:103B7000C9B28A4201D26071A171A078E070F8BD2B
:103B80001E20207265722089ADF8000000988847D9
:103B9000256065602581B570F8BD00001CF3000844
:103BA000A0000020F09600200A4601460068002888
:103BB0000BD08988002908D02AB1012A03D0022A13
:103BC00003D100F059BB00F05BBB70470020074BEE
:103BD000024600EB4001401C03F8212003EB810169
:103BE000C0B20A724A600728F3D370477886002073
:103BF00080B241BA02483222006808F027BC0000B7
:103C00003C0100202DE9F0412349C0F30726C7B24B
:103C10004C68212E12D2DFE806F01114141414148B
:103C20001414141414141414141414141414141454
:103C300014141414141414141414140017A007F0FA
:103C4000CBFD0022AC4662F3070C204962F3174C0F
:103C5000104601EB400E9EF801E0B64502D111F886
:103C6000103003E0401CC0B22128F2D3664663F353
:103C70001F660FB1012F0AD062F30705226829469B
:103C8000304690476468002CF8D1BDE8F0810120EF
:103C900060F30705F2E700003C0100205B494E504D
:103CA00055545D2D2D5B455D2D2D5B496E707574F2
:103CB0005D2D2D2D2D62746E206F7574206F662022
:103CC00072616E67652E0D0A00000000D8F60008CC
:103CD00010B504000AD0082009F040F910B1002105
:103CE000C0E90041034A516809B1486010BD506005
:103CF00010BD00003C0100200F4886B0D0E9001044
:103D0000CDE90310002103A808F04BFB0B4C206009
:103D10000B48FDF7D2FE0A48FEF7B6F84FF0FF3524
:103D20002A466846216808F041FBDDE900101029A9
:103D3000F6D1FFF767FFF3E7D0F600083C0100205B
:103D4000F13B000808B56B460222042106A004F0EE
:103D5000E3FF022803D19DF800005A2801D0642017
:103D600008BD9DF8010008BD6D6973635F706172E5
:103D70006100000008B56B460222032106A004F092
:103D8000CBFF022803D19DF800005A2801D0002063
:103D900008BD9DF8010008BD6D6973635F706172B5
:103DA0006100000008B502226B46114607A004F02E
:103DB000B3FF022803D19DF800005A2802D0082042
:103DC00040B208BD9DF80100FAE700006D69736319
:103DD0005F70617261000000B8B101680A6822F08A
:103DE0000E020A6001680A6822F001020A6090F877
:103DF0004420012303FA02F1026C516080F825305F
:103E0000002180F82410084670470120704710B543
:103E100090F825100024022903D00421C163012455
:103E200018E001680A6822F00E020A6001680A6858
:103E300022F001020A6090F84420012303FA02F103
:103E4000026C516080F82530002180F82410816BCD
:103E500001B18847204610BDF0B4016C0B680168C1
:103E60000A68446C042606FA04F51D4210D0550772
:103E70000ED50A68920603D40A6822F004020A608A
:103E800090F8441006FA01F5016C4D60016B1BE0DF
:103E9000022606FA04F71F424FF0000C4FF001050E
:103EA00016D0970714D50A68920605D40A6822F03E
:103EB0000A020A6080F8255090F844108E40016C88
:103EC0004E6080F824C0C16A002918D0F0BC0847B1
:103ED0000826A6401E4212D0120710D50A6822F00A
:103EE0000E020A6090F84410026C05FA01F151606C
:103EF000C56380F8255080F824C0416BE4E7F0BC2E
:103F00007047000070B568B1314C01681423314A24
:103F1000A14209D2304C0C44B4FBF3F39B00C0E93E
:103F200010230BE0012070BD294C64420C44B4FB0B
:103F3000F3F39B004364264B083B0364022380F8A1
:103F400025300C6847F6F0739C43D0E902352B43CB
:103F5000D0E9045635432B4385692B43C5692B4370
:103F6000056A2B4323430B608168B1F5804F21D054
:103F7000016C0F2391420ED152F8A81F90F84440D3
:103F8000A3409943116090F8443041689940136808
:103F9000194311600EE00E49A0310A6890F84440C0
:103FA000A3409A430A6090F8443042689A400B68F4
:103FB0001A430A600021C162016341638163C163E6
:103FC000012280F8252080F82410084670BD0000EA
:103FD0000804024000000240F8FFFDBF70B504462F
:103FE00090F82400002501280CD0012084F824003A
:103FF00094F825600020012E06D084F824000225C4
:10400000284670BD022070BD022684F82560E0635A
:104010002068066826F0010606602046FDF726FCAB
:10402000206B00282068016802D041F00E0106E0F4
:1040300021F0040101602068016841F00A0101607B
:104040002068016841F001010160D9E7B0F5805FA7
:1040500013D009DCB0F5807F0FD0B0F5806F0ED0A3
:10406000B0F5006F0DD108E0B0F5005F07D0B0F5F6
:10407000804F02D0B0F5004F03D108F019B8FEF719
:1040800067B97047044910B50A68024202D0086057
:10409000FFF7DCFF10BD0000140401402DE9F84FCC
:1040A000DFF8A091002209F1040A0AF1040B4FF095
:1040B0000F080BF1040EBEE001249440234075D09C
:1040C0004D68022D01D0122D11D1D50800EB8507C6
:1040D0003E6A5507ED0E08FA05FC26EA0C06D1F8F3
:1040E00010C00CFA05FC4CEA060CC7F820C00768A3
:1040F0005500032691F804C0AE400CF0030CB74302
:104100000CFA05FC4CEA070CC0F800C04F68012F00
:1041100005D0022F03D0112F01D0122F15D187689F
:10412000D1F80CC0B7430CFA05FC4CEA070CC0F8F8
:1041300008C0476891F804C0A743CCF3001C0CFAF0
:1041400002FC4CEA070CC0F804C0D1F804C06FEAC6
:104150000C07BF0706D1C76AA743CCF3C00494403D
:104160003C43C462C468B4438E68AE402643C66014
:104170004C68E4005ED5344C256E45F0010525669B
:10418000246E22F0030504F0010400942F4C2E1934
:10419000B7689407250F08FA05F4A743B0F1904FCC
:1041A00005D02B4CA04204D101241CE042E00024A5
:1041B00019E0284CA04201D1022414E0264CA04270
:1041C00001D103240FE0254CA04201D104240AE0D0
:1041D000234CA04201D1052405E0224CA04201D18C
:1041E000062400E00724AC403C43B460D9F800400A
:1041F0004D464E689C43F60300D51C432C60DAF80C
:10420000004055464E689C43B60300D51C432C60C5
:10421000DBF800405D464E689C43F60200D51C4327
:104220002C60DEF8004075464E689C43B60200D50F
:104230001C432C60521C0B6833FA02F47FF43CAF31
:1042400000F012B8000401400010024000000140DC
:104250000004004800080048000C00480010004816
:10426000001400480018004818BCBDE8E08F006941
:10427000084000D00120704742694A4042617047BF
:104280000AB181617047816270470000014800688F
:10429000704700000400002090F84120202A24D11B
:1042A00090F84020012A20D0012280F840202422CA
:1042B00080F841200268136823F00103136002684C
:1042C000136823F480531360026813680B43136070
:1042D00001680A6842F001020A60202180F841105A
:1042E000002180F84010084670470220704790F87F
:1042F0004120202A22D190F84020012A1ED00122FC
:1043000080F84020242280F841200268136823F0BE
:10431000010313600268136823F4706343EA012108
:10432000116001680A6842F001020A60202180F8E9
:104330004110002180F84010084670470220704765
:1043400090F841007047000070B5040004D094F864
:104350004100002510B106E0012070BD84F84050F6
:10436000204600F05BFA242084F8410020680168B0
:1043700021F0010101606068216820F0706008612F
:104380002068816821F400418160E0680128A0680C
:1043900007D040F4044021688860E068022803D018
:1043A00006E040F40040F6E721684FF40060486002
:1043B00020684168114A114341602068C16821F4B6
:1043C0000041C160D4E904010843A16940EA012029
:1043D0002168C860D4E907010843216808602068A3
:1043E000016841F0010101606564202084F841000A
:1043F000256384F84250002070BD00000080000258
:104400002DE9F84F044690F84100DDF828A01F463A
:1044100090468B4620287CD194F8400001287FD01C
:10442000012084F84000FFF731FF0646012200908A
:104430001923D103204602F095FB38BB212084F8D4
:104440004100102084F8420000256564C4F82480EF
:1044500067856563618D3348FF274FF080784FF0A3
:104460000079FF2903D927853A46009031E0618D14
:104470002185009032E05946204602F05DFB31E094
:1044800002F0C0FB18B1606C042847D018E0606AE5
:10449000411C6162216800788862608D401E6085E1
:1044A000208D401E0004000C20851BD1608DC8B1FA
:1044B0005346002280212046009602F053FB10B1A3
:1044C000032000F033B8608DFF2804D927853A46D1
:1044D00000954346CFE7608D2085009594F828200D
:1044E0004B46C8E7608D3246002851462046C7D16A
:1044F00002F061FB0028C6D120682021C16120683C
:104500004268094B1A40426084F8411084F84250D6
:1045100000E005E084F840500020D2E70120D0E719
:104520000220CEE70020008000E800FE18BCBDE8B5
:10453000E08F00002DE9FF4F83B00446DDE91087CE
:1045400090F84100DDF848909A469346202874D1AF
:104550005FEA080072D0002F70D094F84000012864
:104560006BD0012084F84000FFF790FE0546012241
:1045700000901923D103204602F0F4FA002874D1E8
:10458000222084F84100402084F84200002666641E
:10459000C4F8248067856663CDE9009553465A4682
:1045A0002046049902F058FA28B1606C84F8406003
:1045B00004285ED059E0618D3848FF274FF080789D
:1045C0004FF0007AFF2904D927853A4643460090E8
:1045D00005E0618D2185009094F8282053462046FF
:1045E000049902F0A9FA4B460022042120460095C6
:1045F00002F0B8FAC8BB2068416A606A421C626275
:104600000170208D401E0004000C2085618DA1F1F9
:10461000010161851DD1608DD8B14B4600228021FA
:104620002046009502F09EFAF8B9608DFF2806D961
:1046300027853A464346009607E02CE019E0608D56
:104640002085009694F8282053462046049902F0CD
:1046500073FA608D0028C6D12A464946204602F0EA
:10466000AAFA40B1606C042803D0032007B000F020
:1046700019B80120FAE720682021C161206842684A
:10468000074B1A40426084F8411084F8426084F875
:1046900040600020EAE70220E8E7000000240080F4
:1046A00000E800FE30BCBDE8C08F00002DE9FF4FE0
:1046B00083B00446DDE9108790F84100DDF84890AA
:1046C0009A469346202870D15FEA08006ED0002FEA
:1046D0006CD094F84000012867D0012084F8400095
:1046E000FFF7D4FD0646012200901923D10320468E
:1046F00002F038FA002854D1212084F841004020EB
:1047000084F8420000256564C4F8248067856563E9
:10471000CDE9009653465A462046049902F0D4F952
:1047200028B1606C84F8405004286CD039E0608D6A
:10473000FF274FF080784FF0007AFF2804D92785B3
:104740003A464346009505E0608D2085009594F833
:10475000282053462046049902F0EEF93246494695
:10476000204602F04FFA18B1606C04284BD018E0D4
:10477000606A411C6162216800788862608D401E19
:104780006085208D401E0004000C208521D1608DA5
:10479000F8B14B46002280212046009602F0E2F953
:1047A00028B1032007B000F035B82EE02BE0608D73
:1047B000FF2804D927853A464346009505E0608DD9
:1047C0002085009594F8282053462046049902F04D
:1047D000B3F9608D0028C1D132464946204602F027
:1047E000EAF90028C0D120682021C1612068426810
:1047F000074B1A40426084F8411084F8425084F814
:1048000040500020CEE70120CCE70220CAE700009C
:1048100000E800FE30BCBDE8C08F000070B5006845
:10482000174E1222012303210425164C86B0B042F4
:1048300011D14803CDE90231CDE900020495694662
:104840001148FFF72BFCA06D40F40010A065A06D8F
:1048500000F4001011E00D4EB0420FD18DE80E00B3
:10486000CDE9031569460A48FFF718FCA06D40F42E
:104870008000A065A06D00F48000059006B070BDBA
:10488000005400400010024000180048005800404A
:104890000014004802480168491C0160704700008C
:1048A0000400002010B5032000F0B2F90F2000F042
:1048B00005F800F041F9002010BD000010B50446D5
:1048C00007484FF47A710068B0FBF1F001F068FB23
:1048D00000222146501E00F07BF9002010BD000090
:1048E000BC0100202DE9F04104004FF0000504D088
:1048F00094F83500002618B107E00120BDE8F081EA
:1049000084F83460204600F06BF8022084F835000B
:104910002068016821F0010101601420216800EB8A
:1049200085028E506D1C0F2DF8D92068816841F0EA
:1049300004018160D4E901100143D4E90A02104363
:104940000143E0690143206A0143A0690143606AB1
:10495000014320684268214B1A40114341602046C0
:1049600002F044FBD4E903100143226B6069104359
:1049700001432068026822F0FE02114301602068B2
:10498000016841F001010160FFF780FC05464FF42A
:104990007A7706E0FFF77AFC401BB84201D908207D
:1049A0000EE020688068C043C007F3D1FFF76EFCBB
:1049B000054608E0FFF76AFC401BB84203D9102007
:1049C000A06303209AE720688068C043C006F1D442
:1049D000A663012084F8350000208FE70E0000FC5C
:1049E00070B50068194986B088422CD11848816D8D
:1049F00041F400718165806D022500F4007005901E
:104A0000082000900024CDE901540B26CDE903468F
:104A100069461048FFF742FB40F2CE700090CDE9A6
:104A20000154CDE9034669464FF09040FFF736FB4D
:104A300040F20B200090CDE90154CDE903466946D0
:104A40000548FFF72BFB06B070BD000000240040B6
:104A50000010024000080048000400482DE9F04121
:104A6000044608202168C8602068816841F004017C
:104A70008160FFF70BFC054600264FF47A770BE0C8
:104A8000FFF704FC401BB84206D90420A06384F859
:104A900034600320BDE8F08120688068C0430007CF
:104AA000EED4012084F8350084F834600020F1E76A
:104AB0002DE9F047044690F835009A46904689461D
:104AC000012806D094F83500022802D00120BDE864
:104AD000F08794F83500012821D194F8340001289A
:104AE0000BD0012084F83400022684F83560FFF7EB
:104AF000CDFB05464FF47A770CE00220E7E7FFF79D
:104B0000C5FB401BB84205D9A663002084F83400D9
:104B10000320DCE720688068C0434007EFD51422FB
:104B2000216802EB89000A5802EA080242EA0A02F6
:104B30000A500020CBE700001E4808B5016E41F086
:104B400001010166016E01F001010091816D41F0EA
:104B500080518165806D00F080500090032000F04E
:104B600057F8002211466FF00B0000F031F80022D8
:104B700011466FF00A0000F02BF8002211466FF08A
:104B8000090000F025F800221146501F00F020F81F
:104B900000221146101F00F01BF800220F21901E6A
:104BA00000F016F800220F21BDE80840501E00F06A
:104BB0000FB800000010024000F01F0201219140D8
:104BC0004009800000F1E020C0F8001170470000AB
:104BD000F0B40E4B1B68C3F30223C3F10704042C8B
:104BE00000D904241D1D072D01D2002300E0DB1E87
:104BF000012606FA04F56D1E0D409D409E40761E6E
:104C0000164045EA0601F0BC02F09ABF0CED00E048
:104C1000064A00F0070110684FF6FF03184040EA0B
:104C20000120034908431060704700000CED00E0CC
:104C30000000FA051549B0F5007F0868C0F341206F
:104C400009D0022805D0086820F4C06040F48060D4
:104C50000860002070470128FBD0086820F4C0607D
:104C600040F4007008600A480A4A0068B0FBF2F09D
:104C70003222504300E0401E10B14A695205FAD476
:104C800048694005E5D503207047000000700040EA
:104C9000BC01002040420F000248416841F400710D
:104CA00041607047007000400248006800F4C06036
:104CB00070470000007000402DE9F84F04460025C1
:104CC0000088E44E2F46010504F1200B1DD5606ECF
:104CD00078B1B0F5800F11D0B0F5000F04D0B0F569
:104CE000400F22D001250FE0F06840F48030F060E2
:104CF0001BE00021201D03F005FE03E000215846C3
:104D000003F096FE050010D02F462088C00426D55B
:104D1000A06EC0B1B0F1807F1AD0B0F1007F0DD08D
:104D2000B0F1407F19D0012518E0D6F88800616EF7
:104D300020F440000843C6F88800E6E7F06840F435
:104D40008030F06009E00021201D03F0DBFD03E06E
:104D50000021584603F06CFE0546F5B12F46206849
:104D6000800366D5B06D4FF00009C00009D4B06D66
:104D700040F08050B065B06D4FF0010900F08050F8
:104D80000090DFF8D4A2DAF8001041F48071CAF87C
:104D90000010FFF77BFA804610E0D6F88800A16E7D
:104DA00020F040700843C6F88800D8E7FFF76EFA95
:104DB000A0EB0800022801D9032532E0DAF8000050
:104DC000C005F3D56DBBD6F8900010F4407015D037
:104DD000D4F88410814211D0D6F89000D6F8901003
:104DE00020F4407041F48031C6F89010D6F890104D
:104DF00021F48031C6F89010C6F89000C0074ED05C
:104E0000FFF744FA804641F2883A05E0FFF73EFAA0
:104E1000A0EB08015145CFD8D6F890008007F5D512
:104E2000EDB32F46B9F1000F03D0B06D20F08050E4
:104E3000B0652078C00707D0D6F88800A16B20F0B5
:104E400003000843C6F888002078800707D5D6F805
:104E50008800E16B20F00C000843C6F88800207839
:104E6000400707D5D6F88800216C20F030000843B1
:104E7000C6F888002078000707D5D6F88800616C4E
:104E800020F0C0000843C6F888002078C00609D585
:104E9000D6F88800A16C20F44070084300E05AE086
:104EA000C6F888002078800607D5D6F88800E16C1F
:104EB00020F440600843C6F888002088800507D5A4
:104EC000D6F88800E16D20F440200843C6F8880039
:104ED0002088400507D5D6F88800216E20F44010C0
:104EE0000843C6F888002078400607D5D6F8880021
:104EF000216D20F440500843C6F888002078000651
:104F000007D5D6F88800616D20F440400843C6F804
:104F100088002088C00507D5D6F88800A16D20F448
:104F200040300843C6F8880020884FF000658004B0
:104F30004FF0806821D5D6F88800E16E20F04060FF
:104F40000843C6F88800E06EA8420ED1F06840F42D
:104F50008010F06011E0D6F89000D4F8841020F4AE
:104F600040700843C6F890005CE7404505D1012138
:104F7000201D03F0C7FC00B107462068000317D5C9
:104F8000D6F88800216F20F040600843C6F88800FA
:104F9000206FA84204D1F06840F48010F06007E070
:104FA000404505D10121201D03F0ACFC00B10746AE
:104FB0002068400317D5D6F88800616F20F0406064
:104FC0000843C6F88800606FA84204D1F06840F436
:104FD0008010F06007E0404505D10121201D03F05D
:104FE00091FC00B10746208840041AD5D6F8880005
:104FF000A16F20F040500843C6F88800A06FB0F1C0
:10500000805F03D0B0F1005F05D00AE00221201DCF
:1050100003F078FC03E00221584603F009FD00B1DB
:1050200007462088000407D5D6F88800E16F20F0F5
:1050300080400843C6F888002068C00307D556F8AA
:10504000880FD4F8801020F00040084330603846C4
:1050500000F004B8001002400070004018BCBDE829
:10506000E08F00002DE9F047DFF8588104460E4636
:10507000D8F8000000F00700B0420CD2D8F80010B9
:1050800021F007013143C8F80010D8F8000000F003
:105090000700B04272D120784B4FC00754D06068EF
:1050A000032818D0022819D03968D0B14905002941
:1050B00064DAB96821F003010143B960FFF7E6F84B
:1050C0000546606841F28831032812D002281DD0BD
:1050D000894638B333E039688901E8E739688903DC
:1050E000E5E78907E3E7FFF7D1F8411B494501D917
:1050F00022E08946B868C0F381000328F3D123E099
:10510000FFF7C4F8411B494501D915E08946B86845
:10511000C0F381000228F3D116E0FFF7B7F8411B76
:10512000494509D8B86810F00C0FF6D10CE0FFF72C
:10513000ADF8411B494502D90320BDE8F087B868A6
:10514000C0F381000128F2D12078800705D5B86826
:10515000A16820F0F0000843B860D8F8001040467D
:1051600001F00701B1420BD9016821F00701314379
:105170000160006800F00700B04201D00120DCE7C8
:105180002078400705D5B868E16820F4E06008435E
:10519000B8602078000706D5B868216920F460500F
:1051A00040EAC100B86000F03BF8B968074AC1F3B3
:1051B0000311515CC840064908600F20FFF77EFBD1
:1051C0000020BAE70020024000100240A80A0108AF
:1051D000BC0100200148006870470000BC010020AD
:1051E0000448054900688968044AC1F30221515CFA
:1051F000C8407047BC01002000100240E80A0108C6
:105200000448054900688968044AC1F3C221515C19
:10521000C8407047BC01002000100240E80A0108A5
:1052200030B52D4A0021084693682C4C13F00C0F22
:105230004FEA640514D09368C3F38103032B04D1B0
:10524000D36803F00303012B0AD09368C3F38103EF
:10525000012B19D09368C3F38103022B16D016E0FB
:105260001168090704D4D2F89410C1F3032102E0B5
:105270001168C1F303111A4B53F82110936813F00E
:105280000C0F04D1084602E0204600E0284693684F
:10529000C3F38103032B1DD1D06800F00303D06852
:1052A000C0F30210401C022B04D0032B05D0B1FB2D
:1052B000F0F004E0B4FBF0F001E0B5FBF0F0D168F1
:1052C000C1F306214843D168C1F34161491C49003B
:1052D000B0FBF1F030BD0000001002400024F400EB
:1052E000B80A01082DE9F84304460078FE4DC006CF
:1052F0005DD5A86810F00C0F0AD0A06900282868B6
:1053000071D040F001002860FEF7C0FF064654E06F
:105310002868800702D5A06900287DD0216A286806
:10532000000703D5286800F0F00004E0D5F89400E9
:10533000F02202EA1010814216D9084603F0FEFB63
:10534000002869D1286840F0080028602868216A90
:1053500020F0F000084328606868E16920F47F408D
:1053600040EA0120686015E0286840F008002860E5
:105370002868216A20F0F000084328606868E16925
:1053800020F47F4040EA01206860206A03F0D6FBE9
:105390000028D6D1FFF744FFA968D44AC1F303110E
:1053A000515CC840D24908600F20FFF787FA29E016
:1053B000FEF76CFF801B02287ED828688007F7D58F
:1053C000286840F0080028602868216A20F0F00072
:1053D000084328606868E16920F47F4040EA0120C2
:1053E00068600FE0FFE720F001002860FEF74EFF45
:1053F000064604E0FEF74AFF801B0228DCD8286836
:105400008007F7D42078C00748D0A868C0F381008F
:1054100002281FD0A86800E095E0C0F381000328AF
:1054200003D1E868C043800714D06068B0F5803FBE
:1054300017D0B0F5A02F286817D020F4803028604E
:10544000286820F4802028606068D8B1FEF71EFF2D
:10545000064613E02868800320D56068002872D0D3
:105460001CE0286840F48030EDE740F4802028609C
:10547000F7E7FEF70BFF801B64289DD828688003A0
:10548000F7D50BE0FEF702FF064604E0FEF7FEFE4E
:10549000801B642890D828688003F7D42078800780
:1054A00041D5A868C0F38100012816D0A868C0F3D0
:1054B0008100032806D100E0A5E0E86800F00300C1
:1054C00002280AD0E068002828681DD040F48070C7
:1054D0002860FEF7DBFE06460BE0286840050BD58A
:1054E000E0680028BBD007E0FEF7D0FE801B022852
:1054F00084D828684005F7D56868217C20F0F850EA
:1055000040EA016068600EE020F480702860FEF7D9
:10551000BDFE064604E0FEF7B9FE801B022872D8E5
:1055200028684005F7D42078000728D5606900284E
:10553000D5F8940012D040F00100C5F89400FEF7B1
:10554000A5FE064605E0F7E0FEF7A0FE801B022858
:1055500059D8D5F894008007F6D510E020F0010066
:10556000C5F89400FEF792FE064604E0FEF78EFEB4
:10557000801B022847D8D5F894008007F6D42078FD
:10558000400762D5A86D0027C00008D4A86D40F080
:105590008050A865A86D012700F080500090554804
:1055A0000168C90511D40168804641F48071016029
:1055B000FEF76CFE064604E0FEF768FE801B02283C
:1055C00021D8D8F80000C005F6D5A068012815D06C
:1055D0000528D5F8900017D020F00100C5F89000FC
:1055E000D5F8900020F00400C5F89000A06841F2C2
:1055F0008838C0B1FEF74AFE06460FE0D5F89000A5
:1056000040F00100F0E77BE040F00400C5F89000B6
:10561000F4E7FEF73BFE811B414571D8D5F89000B9
:105620008007F6D50CE0FEF731FE064604E0FEF7F3
:105630002DFE811B414577D8D5F890008007F6D420
:105640001FB1A86D20F08050A865A06AF0B3A968CA
:10565000C1F38101032970D00228286820F08070EE
:10566000286011D02868000106D42868800003D47F
:10567000E86820F00300E860E8681F490840E86037
:10568000FEF704FE044652E0FEF700FE064604E084
:10569000FEF7FCFD801B022846D828688001F7D45D
:1056A000206BE16A000110380843616BA26B0902AC
:1056B000120941EA42410843A18F104A490802EB0E
:1056C0004151084394F84010490800E032E01201CB
:1056D00002EB41610843E860286840F08070286070
:1056E000E86840F080700CE000100240A80A010851
:1056F000BC01002000700040FFFFEEFE0000E0FF54
:1057000012E0E860FEF7C2FD044604E0FEF7BEFDCD
:10571000001B022808D828688001F7D50AE0FEF7A8
:10572000B5FD001B022802D90320BDE8F8832868D4
:105730008001F4D40020F8E7FFE70120F5E7704787
:105740000068503050F8210070470068503040F831
:105750002120704710B503F0ADFABDE81040FBF70B
:105760000FBA000010B51B4904464FF480200860B2
:105770001EE08868C0040BD5C868C00508D5C86895
:1057800000F0800060F4C070C8602046FFF7E2FFC0
:105790002168886880040BD5C868800508D5C8686A
:1057A00000F0800060F42070C8602046FFF7C7FF5B
:1057B00021688868C00402D5C868C005D9D4886843
:1057C000800402D5C8688005D3D4012084F8210064
:1057D00010BD00001404014010B500680B4641687C
:1057E0000D480140080CD870C1F304245C7001F02E
:1057F0003F049C70C1F34231197052B903F006FAAC
:10580000D870587803F002FA5870987803F0FEF9CF
:105810009870002010BD00003FFFFF0010B50B4640
:105820000168896A596001680969C1F30E019960CC
:10583000006801680E480140C1F305401870C1F3CB
:1058400006245C7001F07F049C70402404EA11413E
:10585000D97052B903F0DAF91870587803F0D6F914
:105860005870987803F0D2F99870002010BD0000AD
:105870007F7F7F0070B5040003D094F8210010B141
:1058800007E0012070BD002084F82000204600F0D1
:105890004DF8022084F821002168CA20486221685E
:1058A00053204862204603F0C5F9FF25042618BBA3
:1058B000206881681C4A11408160206881686268A4
:1058C000A369114322691A43114381602168E0688A
:1058D000086120680169228941EA0241016120686A
:1058E000C16821F08001C16020688068800608D40A
:1058F000204600F0EFF920B12068456284F821606D
:10590000BFE72068C16C21F00301C164E1696069EF
:1059100001432068C26C1143C164206845620120C4
:1059200084F82100002070BDBFFF8FFF10B5006814
:10593000094988420FD1094850F8901F41F40041AD
:105940000160002205212920FFF742F9BDE810403F
:105950002920FFF731B910BD002800400010024097
:105960002DE9F05F044690F820000B46012849D04D
:105970004FF0010A84F820A0022084F8210020685A
:10598000002680684FEA4060DAB3002857DA1878BA
:1059900003F03CF993F8200003F038F9987819786F
:1059A000DA7840EA01405978090241EA02410843A5
:1059B00093F8201040EA0165D8695F68054358698B
:1059C0002168054398690743CA204862216853202B
:1059D0004862586A4FF0FF09B0F5807F20684FF4A5
:1059E0007A7B81682DD021F4007181602068C168C4
:1059F00001F0800161F42071C160FEF747FC804630
:105A000054E002E0022000F079B8002800DBDE70EC
:105A1000187803F004F90204587803F000F942EA18
:105A20000022987803F0FBF80243D87842EA00425B
:105A300093F8200003F0F3F842EA0065BCE7DE705B
:105A4000A8E721F4807181602068C16801F08001BD
:105A500061F4C071C160FEF719FC804605E0FEF7F5
:105A600015FCA0EB0800584517D82068C068C0078F
:105A7000F5D02068C561206847642068816841F4DA
:105A8000807181602068816841F480511FE0FEF7D9
:105A9000FDFBA0EB0800584508D92168C1F8249007
:105AA000032084F8210084F82060ACE72068C068F7
:105AB0008007ECD5206805622068876420688168CB
:105AC00041F4007181602068816841F40051816077
:105AD0000948016841F480210160074808300168E5
